:020000040800F2
:1080000078060020798200086D91000865910008CB
:108010006991000835830008919100080000000074
:108020000000000000000000000000007591000842
:108030003983000800000000719100087991000860
:1080400093820008938200089382000893820008BC
:1080500093820008938200089382000893820008AC
:10806000938200089382000893820008938200089C
:10807000938200089382000893820008938200088C
:10808000938200089382000893820008938200087C
:10809000938200089382000893820008938200086C
:1080A000938200089382000893820008938200085C
:1080B000938200089382000893820008938200084C
:1080C000938200089382000893820008938200083C
:1080D000938200089382000893820008938200082C
:1080E000938200089382000893820008938200081C
:1080F000938200089382000893820008938200080C
:1081000093820008938200089382000893820008FB
:1081100093820008938200089382000893820008EB
:1081200093820008938200089382000893820008DB
:1081300093820008938200089382000893820008CB
:1081400093820008938200089382000893820008BB
:1081500093820008938200089382000893820008AB
:10816000938200089382000893820008938200089B
:1081700093820008938200089382000800000000A8
:10818000938200089382000893820008938200087B
:10819000938200089382000893820008938200086B
:1081A00093820008938200089382000800F002F88E
:1081B00000F052F814A696E8000CB244B344DA4535
:1081C00001D100F049F8BAE80F000FA696E8300098
:1081D000A5EB040504EB0607AAEB0704A7F10107CA
:1081E0004FEA15154FEA3414A4F10104AC4201D34F
:1081F00000F032F813F0010F18BFFB1A43F001032F
:1082000000F001F8DBE71847DC120000FC12000068
:10821000103A24BF78C878C1FAD8520724BF30C8B2
:1082200030C144BF04680C60704700007047000014
:108230000023002400250026103A28BF78C1FBD86F
:10824000520728BF30C148BF0B6070471FB501F00F
:108250001CF91FBD10B510BD00F031F81146FFF735
:10826000F5FF01F08FF800F04FF803B4FFF7F2FFCD
:1082700003BC00F057F80000094880470948004750
:10828000FEE7FEE7FEE7FEE7FEE7FEE7FEE7FEE7C6
:10829000FEE7FEE704480549054A064B7047000023
:1082A0007D910008AD81000878000020780600204C
:1082B00078020020780200207047704770477546AA
:1082C00000F02CF8AE4605006946534620F0070042
:1082D000854618B020B5FFF7DDFFBDE820404FF020
:1082E00000064FF000074FF000084FF0000BAC46BF
:1082F000ACE8C009ACE8C009ACE8C009ACE8C0090A
:1083000021F007018D46704710B50446AFF3008099
:108310002046BDE81040FFF7A8BF000000487047A6
:108320001000002001491820ABBEFEE72600020025
:1083300070470000FEE70000704700002DE9F04F95
:1083400082B00D68002D00F0C58000F13847860529
:1083500046EA972741F60046C4F60006082240F296
:10836000004EB04208BF0722C4F2010E072F38BFEB
:108370003A464FF0000C012400270026009209E045
:108380000D68013635FA06F207F102070CF1040C0C
:1083900000F0A08004FA06FB15EA0B08F0D0D1F833
:1083A00004A003230AF003056A1EBB40012A6FEAFA
:1083B00003090FD88268CB6802EA0902BB401A435E
:1083C00082604268CAF3001322EA0B02B3401A43E8
:1083D000426003E0032D01D103251FE0C2688B68D2
:1083E00002EA0902BB401A43022DC26016D16FF0A7
:1083F000030202EA560202440CF01C050F23D2F8D5
:1084000020A003FA05FB0B692AEA0B0AAB4043EAFA
:108410000A031362D1F804A00AF00305026805FA02
:1084200007F302EA09021A431AF4403F0260A7D098
:1084300041F26003C4F202031A684FF6084A42F0A0
:1084400001021A601A68CFF6FF7A02F00102019267
:10845000019A26F00302724452F80A900CF00C05BF
:108460000F23009CAB4029EA030304FA05F52B43D4
:1084700042F80A30DEF808204B6842EA080540F26C
:108480000C49DC0258BF22EA0805CEF80850C4F2B5
:108490000109D9F800209D0242EA080458BF22EAE7
:1084A0000804C9F80040DEF804209D0342EA0804ED
:1084B00058BF22EA0804CEF80440DEF80020DB03AF
:1084C00042EA080458BF22EA0804CEF8004001241A
:1084D00056E700BF02B000F000B830BCBDE8C08F66
:1084E0001823002A08BF2823C150704740F27000AB
:1084F000C2F200000068704740F2000040F27001D4
:10850000C2F20000C2F2000100780A68104408605C
:108510007047000080B5032000F078F80F2000F0CD
:1085200009F800281CBF012080BD00F029F80020B8
:1085300080BD000070B540F20006C2F2000631783E
:10854000E1B1044640F20800C2F200004FF47A7232
:108550000068B2FBF1F1B0FBF1F000F0EDFD0F2C83
:108560004FF0010508D838B94FF0FF3021460022FE
:10857000002500F01FF87460284670BD012070BD12
:1085800082B041F25800C4F20200816841F001015A
:108590008160816801F0010101910199016841F058
:1085A00080510160006800F080500090009802B097
:1085B0007047000010B54EF60C5CCEF2000CDCF8F3
:1085C0000030C3F3022E8EF00704042C28BF0424CD
:1085D000BEF103034FF0FF3E0EFA04F438BF002350
:1085E000A14399400EFA03F39A43114300F00F029E
:1085F00000F160430901043A03F564436244002832
:1086000048BF02F10C03197010BD00004EF60C516A
:10861000CEF200010A684FF6FF031A4060F30A2207
:1086200042F0806040F0FD700860704747F2000142
:10863000C4F200010A68B0F5007F02F4C06031D1D5
:10864000B0F5007F2CD00868012262F34A20086050
:1086500040F20800C2F200000068322250434DF69A
:108660008362C4F21B32A0FB0202900C4A695205DD
:1086700011D5421C0FD04A6952050CD558B14A6930
:10868000520508D5012806D04A69520503D50228AB
:10869000A0F10400EAD14869400544BF03207047B7
:1086A00000207047B0F5806FFAD00868022262F3AC
:1086B0004A2008600020704747F20000C4F2000022
:1086C000006800F4C06070472DE9F04381B00028D5
:1086D0006BD042F20008C4F202080446D8F8000049
:1086E0000D4600F0070088420CD2D8F8000020F0B8
:1086F00007002843C8F80000D8F8000000F0070081
:10870000A84252D1206841F2080910F00201C4F2D7
:1087100002090DD0A268D9F8003003F0F0039A42A4
:1087200006D9D9F8003023F0F0031A43C9F8002025
:10873000C2072DD169B1A168D9F8002002F0F0027A
:10874000914206D2D9F8002022F0F0021143C9F874
:108750000010D8F8001001F00701A9420CD9D8F890
:10876000001021F007012943C8F80010D8F80010C4
:1087700001F00701A94218D141071BD4000723D4F7
:10878000D9F80000D9F8041010F00C002CD131E019
:10879000606800285ED0022800F07E80032840F048
:1087A000818059F8081C890158D4012001B0BDE826
:1087B000F08300BFD9F80010E26821F4E0611143B2
:1087C000C9F800100007DBD5D9F80000216920F4B2
:1087D000605040EAC100C9F80000D9F80000D9F89B
:1087E000041010F00C0005D00C2829D101F0030171
:1087F000012925D159F8081C090703D4D9F88C1090
:10880000090A02E059F8081C090949F2B44201F0CA
:108810000F01C0F6000252F8211000280A4618BFC6
:1088200000220C2871D1D9F8040000F003000228BE
:1088300046D0032804BF41F20021C0F27A0143E090
:10884000042857D008285BD141F20022C0F27A02F6
:108850005BE000BF59F8081C8907A6D5D9F80010BD
:1088600021F003010843C9F80000FFF73FFE064668
:1088700041F28837D9F80000616800F00C00B0EBD5
:10888000810F15D0FFF732FE801BB842F2D90320CA
:1088900001B0BDE8F08300BF59F8081C89037FF5DB
:1088A00084AFDBE759F8081C49057FF57EAFD5E7B3
:1088B000206800F0020100297FF43DAF49E700BFC6
:1088C00042F20041C0F2F401D9F80400D9F80420C2
:1088D000C0F30210C2F306225143D9F8042001303C
:1088E000B1FBF0F0C2F34161022202EB4101B0FBA7
:1088F000F1F20AE042F20042C0F2F40205E000BFE9
:10890000002200210C283FF48EAFD9F8000049F274
:10891000A441C0F30310C0F60001085C00F01F0082
:1089200022FA00F140F20400C2F2000040F2080214
:108930000068C2F20002116001B0BDE8F043FFF729
:10894000F9BD0000002804BF012070472DE9F04365
:1089500083B041F200060446C4F20206B068F16832
:10896000227800F00C09D00601F003081ED420780C
:10897000C00700F08880B9F1080F00F07D80B9F1E0
:108980000C0F08BFB8F1030F76D06068B0F5803FD8
:1089900007D0B0F5A02F40F05982306840F4802015
:1089A0003060306840F4803030605AE2B9F1000F36
:1089B0001CD0B9F10C0F08BFB8F1010F16D0A16996
:1089C0003068002900F0A08140F001003060FFF71E
:1089D0008DFD05463068800700F1A881FFF786FD10
:1089E000401B02284FF00300F4D960E33068800791
:1089F00003D5A069002800F0F382256A30680007DB
:108A000000F14A81D6F89400000900F0F000854298
:108A100000F248813068B9F1000F40F00800306082
:108A2000306820F0F00040EA050030607068E169CD
:108A300020F47F4040EA0120706040F0BE82B06DBB
:108A4000C00000F15B82B06D40F08050B065B06D49
:108A500000F0805002900298FFF72EFEB16D21F0D9
:108A60008051B165B0F5007F00F04E82802D40F25C
:108A70008B82032093E200BF3068800303D56068D7
:108A8000002800F0AD82207880072DD5B9F1040FC1
:108A90001CD0B9F10C0F08BFB8F1020F16D0E16875
:108AA0003068002900F0EC8140F480703060FFF7FE
:108AB0001DFD0546306840050FD4FFF717FD401B2C
:108AC00002284FF00300F5D9F1E200BF30684005FD
:108AD00003D5E068002800F083827068216920F0E7
:108AE000FE4040EA016070602078000760D4207882
:108AF000400779D42078800600F1B280A06A00286F
:108B000000F01683022840F02381F068E16A00F04B
:108B100003028A4240F03481226B6FF00F0300F0B1
:108B2000700103EB0212914240F02A81616B00F464
:108B3000FE42B2EB012F40F02381A16B00F078429E
:108B4000B2EBC16F40F01C81E26B0023CFF6E07303
:108B500003EA025200F4C001A2F50012914240F073
:108B60000F81216C4FF07E4202EA016100F0C0608B
:108B700001F17E41884240F003813068800100F1BC
:108B8000D782306840F080703060F06840F08070CC
:108B9000F060FFF7ABFC04463068800100F1C8824A
:108BA000FFF7A4FC001B02284FF00300F4D97EE27B
:108BB0006169D6F89400002900F0908040F001002F
:108BC000C6F89400FFF792FC054600BFD6F8940063
:108BD00080078CD4FFF78AFC401B0228F6D90320BB
:108BE00003B0BDE8F08300BFB06D5FEAC00808D4F1
:108BF000B06D40F08050B065B06D00F080500090D6
:108C0000009847F20007C4F200073868C00513D483
:108C1000386840F480703860FFF768FC054600BF94
:108C20003868C00508D4FFF761FC401B02284FF0EC
:108C30000300F5D93BE200BFA068012808D0052851
:108C400040F0E280D6F8900040F00400C6F89000B2
:108C5000D6F8900040F00100C6F89000E2E000BFB6
:108C6000616AD6F89800002900F0B88040F0010051
:108C7000C6F89800FFF73AFC054600BFD6F8980002
:108C800080073FF53BAFFFF731FC401B02284FF058
:108C90000300F3D90BE200BF306800F0F00085421A
:108CA0007FF6B8AEB06DC00000F18A80B06D40F0C4
:108CB0008050B065B06D00F0805001900198FFF7D2
:108CC000FBFCB16D21F08051B165B0F5007F00F083
:108CD0007D80802D40F2E6800320EEE020F0010050
:108CE000C6F89400FFF702FC054600BFD6F89400D2
:108CF00080077FF5FCAEFFF7F9FB401B02284FF021
:108D00000300F3D9D3E100BF20F001003060FFF78A
:108D1000EDFB0546306880077FF529AEFFF7E6FBDF
:108D2000401B02284FF00300F4D9C0E1306840F046
:108D3000080030603068D4E9071220F0F0001043DA
:108D40003060706820F47F4040EA012070600EE6D9
:108D5000B9F10C0F00F04481306820F08070306071
:108D6000FFF7C4FB044600BF3068800140F1F0808B
:108D7000FFF7BCFB001B02284FF00300F4D996E17B
:108D8000B9F10C0F00F02C813068400100F128810E
:108D90003068C00000F12481306820F080703060BD
:108DA000FFF7A4FB05463068800140F18381FFF79F
:108DB0009DFB401B02284FF00300F4D977E100BF70
:108DC000FFF77AFCB0F5007F7FF483AF812D73D37A
:108DD0000120A02D88BF02206FE000BF20F001001D
:108DE000C6F89800FFF782FB054600BFD6F898004A
:108DF00080077FF583AEFFF779FB401B02284FF019
:108E00000300F3D953E100BFD6F89010002821F0F9
:108E10000101C6F89010D6F8901021F00401C6F8B0
:108E2000901079D0FFF762FB054641F2883700BF0A
:108E3000D6F89000800700F18180FFF757FB401BB8
:108E4000B842F5D9032003B0BDE8F08331680028AB
:108E500021F480313160316821F48021316000F0EB
:108E60008380FFF743FB0546306880033FF50BAE78
:108E7000FFF73CFB401B64284FF00300F4D916E1D8
:108E800020F480703060FFF731FB05463068400504
:108E90007FF52AAEFFF72AFB401B02284FF00300A4
:108EA000F4D904E1A5F17000B0FA80F04009802DFA
:108EB00008BF022001E000BF002042F20001C4F21E
:108EC00002010A6822F0070202440A60096801F000
:108ED0000701814240F08480306840F00800306033
:108EE0003068D4E9071220F0F00010433060706859
:108EF00020F47F4040EA012070605EE0FFF7DCFB79
:108F0000B0F5007F7FF4B2AD812D47D30120A02DB5
:108F100088BF022043E000BFFFF7E8FA054641F2B0
:108F2000883700BFD6F89000800707D5FFF7DEFA34
:108F3000401BB8424FF00300F4D9B8E0B8F1000F7D
:108F40003FF5D8ADB06D20F08050B065D2E500BFE0
:108F5000F0684FF6FC71CFF6EE610840F06000203B
:108F600003B0BDE8F08300BFFFF7C0FA054600BFBD
:108F7000306880037FF587ADFFF7B8FA401B64289F
:108F80004FF00300F4D992E0A5F17000B0FA80F040
:108F90004009802D08BF022001E000BF002042F2FE
:108FA0000001C4F202010A6822F0070202440A60CA
:108FB000096801F00701814212D1B068F16810F030
:108FC0000C0005D00C282BD101F00301012927D179
:108FD0003168090708D4D6F89410090A06E000BFE2
:108FE000012003B0BDE8F0833168090949F2B442B9
:108FF00001F00F01C0F6000252F8211000280A46C5
:1090000018BF00220C2837D1F06800F003000228B6
:1090100010D0032804BF41F20021C0F27A010DE014
:1090200004281FD0082823D141F20022C0F27A027E
:1090300022E000BF42F20041C0F2F401F068F268A1
:10904000C0F30210C2F306225143F2680130B1FBB3
:10905000F0F0C2F34161022202EB4101B0FBF1F2F8
:109060000AE000BF42F20042C0F2F40204E000BF96
:10907000002200210C28C7D0B06849F2A441C0F3F7
:109080000310C0F60001085C00F01F0022FA00F196
:1090900040F20400C2F2000040F208020068C2F28E
:1090A00000021160FFF746FA00283FF460AC03B0FD
:1090B000BDE8F083F06848F28C01C0F29D1104F124
:1090C0002C0700EA010C8ECF6FF00F00D4E90F548B
:1090D00000EB02100022CFF6E07241EA0C0102EA36
:1090E00005520843A2F500124FF07E4540EA0320E6
:1090F00005EA0465104305F17E4540EAC760284350
:10910000F060306840F080703060F06840F080704F
:10911000F060FFF7EBF904463068800108D4FFF7F0
:10912000E5F9001B02284FF00300F5D9BFE700BFA7
:10913000002003B0BDE8F083411E0020B0EB116FAA
:109140001CBF012070474EF21002CEF200025160A7
:109150004EF62351CEF20001F0230B7007219060F0
:1091600011607047FEE70000FEE70000FEE7000028
:109170007047000070470000FFF7BEB94EF68850F8
:10918000CEF20000016841F47001016070470000F8
:10919000FEE70000002808BF704770B54EF21801C6
:1091A00043F68002CEF20001C0F20102042800F072
:1091B000030C67D2BCF1000F61D00B68002003E004
:1091C000E51A2844904216D21C4600BF0B68A34201
:1091D00008D10B68A34205D10B68A34202D10B68EA
:1091E000A342F3D09C42EBD851F8046CE51A354405
:1091F00028449042E8D3BCF1010F40D00B68002016
:1092000004E000BFE51A2844904216D21C4600BF75
:109210000B68A34208D10B68A34205D10B68A34297
:1092200002D10B68A342F3D09C42EBD851F8046CF6
:10923000E51A354428449042E8D3BCF1020F1ED011
:109240000B68002004E000BFE51A2844904216D2C3
:109250001C4600BF0B68A34208D10B68A34205D18E
:109260000B68A34202D10B68A342F3D09C42EBD817
:1092700051F8046CE51A354428449042E8D3BDE81F
:109280007040704720F0030E002304E0043398B2CE
:1092900070453FF48FAF0C68002009E0A542A5EBB4
:1092A00004059CBF51F8046C3544284490420FD209
:1092B000254600BF0C68AC42F0D10C68AC42EDD141
:1092C0000C68AC42EAD10C68AC42F3D0E6E700BFD0
:1092D0000C6800200AE000BFA542A5EB04059CBF76
:1092E00051F8046C3544284490420FD2254600BF03
:1092F0000C68AC42F0D10C68AC42EDD10C68AC42C9
:10930000EAD10C68AC42F3D0E6E700BF0C6800205D
:109310000AE000BFA542A5EB04059CBF51F8046C10
:109320003544284490420FD2254600BF0C68AC4219
:10933000F0D10C68AC42EDD10C68AC42EAD10C68BB
:10934000AC42F3D0E6E700BF0C6800200BE000BFA2
:10935000A542A5EB04059CBF51F8046C3544284494
:109360009042BFF493AF25460C68AC42F0D10C6834
:10937000AC42EDD10C68AC42EAD10C68AC42F3D0FF
:10938000E6E7000096B0FFF7C5F80020CDE90D0034
:10939000CDE90B00CDE90900CDE907004FF40070DD
:1093A000FFF744F920B1EFF3108072B6FEE700BF7B
:1093B00001204FF480310324059006910221CDE96C
:1093C00010401420CDE9120105A80F91CDE9141128
:1093D000FFF7B8FA20B1EFF3108072B6FEE700BFD6
:1093E0000F20CDE90004002568460421CDE902558F
:1093F0000495FFF769F928B1EFF3108072B600BF4A
:10940000FEE700BF41F24C000995C4F2020001687A
:1094100040F2144641F0800101600168C4F6000684
:1094200001F08001009100990168A6F1140441F057
:10943000020101600168002201F00201009100991F
:109440000168012741F0010101600068012100F07D
:109450000100009000982046FFF742F805A9204639
:10946000CDE90577CDE90755FEF768FF306840F094
:10947000010030600120FFF78DFE306820F0010010
:1094800030600120FFF786FEF0E7F1EE100A4FF69C
:10949000FF71C0F2C03120EA010040F04070E1EEFF
:1094A000100A7047000000000000000001020304E1
:1094B00006070809A0860100400D0300801A060077
:1094C00000350C0040420F0080841E0000093D0062
:1094D00000127A000024F40000366E010048E80112
:1094E000006CDC020895000800000020100000005D
:1094F000108200081895000810000020680600007F
:109500003082000800000000010000001000000090
:0895100000093D00000000000D
:04000005080081ADC1
:00000001FF
