:020000040800F2
:10800000C80600207982000895950008A59400080C
:1080100091950008358300080997000800000000CA
:108020000000000000000000000000009D95000816
:10803000398300080000000099950008A195000808
:1080400093820008938200089382000893820008BC
:1080500093820008938200089382000893820008AC
:10806000938200089382000893820008938200089C
:10807000938200089382000893820008938200088C
:10808000938200089382000893820008938200087C
:10809000938200089382000893820008938200086C
:1080A000938200089382000893820008938200085C
:1080B000938200089382000893820008938200084C
:1080C000938200089382000893820008938200083C
:1080D000938200089382000893820008938200082C
:1080E000938200089382000893820008938200081C
:1080F000938200089382000893820008938200080C
:1081000093820008938200089382000893820008FB
:1081100093820008938200089382000893820008EB
:1081200093820008938200089382000893820008DB
:1081300093820008938200089382000893820008CB
:1081400093820008938200089382000893820008BB
:1081500093820008938200089382000893820008AB
:10816000938200089382000893820008938200089B
:1081700093820008938200089382000800000000A8
:10818000938200089382000893820008938200087B
:10819000938200089382000893820008938200086B
:1081A00093820008938200089382000800F002F88E
:1081B00000F052F814A696E8000CB244B344DA4535
:1081C00001D100F049F8BAE80F000FA696E8300098
:1081D000A5EB040504EB0607AAEB0704A7F10107CA
:1081E0004FEA15154FEA3414A4F10104AC4201D34F
:1081F00000F032F813F0010F18BFFB1A43F001032F
:1082000000F001F8DBE718471818000038180000E4
:10821000103A24BF78C878C1FAD8520724BF30C8B2
:1082200030C144BF04680C60704700007047000014
:108230000023002400250026103A28BF78C1FBD86F
:10824000520728BF30C148BF0B6070471FB501F00F
:10825000BAFB1FBD10B510BD00F031F81146FFF795
:10826000F5FF01F04BFB00F04FF803B4FFF7F2FF0E
:1082700003BC00F057F80000094880470948004750
:10828000FEE7FEE7FEE7FEE7FEE7FEE7FEE7FEE7C6
:10829000FEE7FEE704480549054A064B7047000023
:1082A000A5950008AD810008C8000020C806002080
:1082B000C8020020C802002070477047704775460A
:1082C00000F02CF8AE4605006946534620F0070042
:1082D000854618B020B5FFF7DDFFBDE820404FF020
:1082E00000064FF000074FF000084FF0000BAC46BF
:1082F000ACE8C009ACE8C009ACE8C009ACE8C0090A
:1083000021F007018D46704710B50446AFF3008099
:108310002046BDE81040FFF7A8BF000000487047A6
:108320001000002001491820ABBEFEE72600020025
:1083300070470000FEE7000070470000EFF3108078
:1083400072B600BFFEE700002DE9F04F82B00D6865
:10835000002D00F0C58000F13847860546EA9727D2
:1083600041F60046C4F60006082240F2004EB04234
:1083700008BF0722C4F2010E072F38BF3A464FF05C
:10838000000C012400270026009209E00D68013648
:1083900035FA06F207F102070CF1040C00F0A08098
:1083A00004FA06FB15EA0B08F0D0D1F804A0032369
:1083B0000AF003056A1EBB40012A6FEA03090FD8C1
:1083C0008268CB6802EA0902BB401A4382604268B5
:1083D000CAF3001322EA0B02B3401A43426003E0DF
:1083E000032D01D103251FE0C2688B6802EA090250
:1083F000BB401A43022DC26016D16FF0030202EA9D
:10840000560202440CF01C050F23D2F820A003FAF8
:1084100005FB0B692AEA0B0AAB4043EA0A03136225
:10842000D1F804A00AF00305026805FA07F302EA8E
:1084300009021A431AF4403F0260A7D041F26003D8
:10844000C4F202031A684FF6084A42F001021A60A9
:108450001A68CFF6FF7A02F001020192019A26F023
:108460000302724452F80A900CF00C050F23009C92
:10847000AB4029EA030304FA05F52B4342F80A301E
:10848000DEF808204B6842EA080540F20C49DC029D
:1084900058BF22EA0805CEF80850C4F20109D9F8FD
:1084A00000209D0242EA080458BF22EA0804C9F8E5
:1084B0000040DEF804209D0342EA080458BF22EA87
:1084C0000804CEF80440DEF80020DB0342EA08048A
:1084D00058BF22EA0804CEF80040012456E700BF46
:1084E00002B000F000B830BCBDE8C08F1823002AED
:1084F00008BF2823C150704740F2C000C2F20000FC
:108500000068704740F2000040F2C001C2F2000073
:10851000C2F2000100780A68104408607047000049
:1085200080B5032000F078F80F2000F009F800284B
:108530001CBF012080BD00F029F8002080BD000094
:1085400070B540F20006C2F200063178E1B104468F
:1085500040F20800C2F200004FF47A720068B2FBE9
:10856000F1F1B0FBF1F000F0EDFD0F2C4FF0010543
:1085700008D838B94FF0FF3021460022002500F01E
:108580001FF87460284670BD012070BD82B041F2B2
:108590005800C4F20200816841F0010181608168E5
:1085A00001F0010101910199016841F080510160E0
:1085B000006800F080500090009802B07047000002
:1085C00010B54EF60C5CCEF2000CDCF80030C3F3B4
:1085D000022E8EF00704042C28BF0424BEF10303EE
:1085E0004FF0FF3E0EFA04F438BF0023A143994038
:1085F0000EFA03F39A43114300F00F0200F16043B7
:108600000901043A03F564436244002848BF02F1BB
:108610000C03197010BD00004EF60C51CEF2000193
:108620000A684FF6FF031A4060F30A2242F08060A6
:1086300040F0FD700860704747F20001C4F200018D
:108640000A68B0F5007F02F4C06031D1B0F5007F58
:108650002CD00868012262F34A20086040F208002A
:10866000C2F200000068322250434DF68362C4F229
:108670001B32A0FB0202900C4A69520511D5421C24
:108680000FD04A6952050CD558B14A69520508D530
:10869000012806D04A69520503D50228A0F104003A
:1086A000EAD14869400544BF032070470020704765
:1086B000B0F5806FFAD00868022262F34A200860A1
:1086C0000020704747F20000C4F20000006800F488
:1086D000C06070472DE9F04381B000286BD042F2B2
:1086E0000008C4F202080446D8F800000D4600F065
:1086F000070088420CD2D8F8000020F00700284379
:10870000C8F80000D8F8000000F00700A84252D1D5
:10871000206841F2080910F00201C4F202090DD0EC
:10872000A268D9F8003003F0F0039A4206D9D9F8CC
:10873000003023F0F0031A43C9F80020C2072DD1FE
:1087400069B1A168D9F8002002F0F002914206D286
:10875000D9F8002022F0F0021143C9F80010D8F82F
:10876000001001F00701A9420CD9D8F8001021F03F
:1087700007012943C8F80010D8F8001001F00701DC
:10878000A94218D141071BD4000723D4D9F800000F
:10879000D9F8041010F00C002CD131E060680028EA
:1087A0005ED0022800F07E80032840F0818059F8D6
:1087B000081C890158D4012001B0BDE8F08300BF36
:1087C000D9F80010E26821F4E0611143C9F8001003
:1087D0000007DBD5D9F80000216920F4605040EA99
:1087E000C100C9F80000D9F80000D9F8041010F051
:1087F0000C0005D00C2829D101F00301012925D155
:1088000059F8081C090703D4D9F88C10090A02E0AA
:1088100059F8081C090949F6F01201F00F01C0F6D9
:10882000000252F8211000280A4618BF00220C2826
:1088300071D1D9F8040000F00300022846D00328C3
:1088400004BF41F20021C0F27A0143E0042857D06E
:1088500008285BD141F20022C0F27A025BE000BF3F
:1088600059F8081C8907A6D5D9F8001021F0030192
:108870000843C9F80000FFF73FFE064641F288377B
:10888000D9F80000616800F00C00B0EB810F15D042
:10889000FFF732FE801BB842F2D9032001B0BDE8D9
:1088A000F08300BF59F8081C89037FF584AFDBE72C
:1088B00059F8081C49057FF57EAFD5E7206800F020
:1088C000020100297FF43DAF49E700BF42F20041B9
:1088D000C0F2F401D9F80400D9F80420C0F3021062
:1088E000C2F306225143D9F804200130B1FBF0F065
:1088F000C2F34161022202EB4101B0FBF1F20AE056
:1089000042F20042C0F2F40205E000BF0022002162
:108910000C283FF48EAFD9F8000049F6E011C0F3FF
:108920000310C0F60001085C00F01F0022FA00F1FD
:1089300040F20400C2F2000040F208020068C2F2F5
:108940000002116001B0BDE8F043FFF7F9BD00007F
:10895000002804BF012070472DE9F04383B041F2A5
:1089600000060446C4F20206B068F168227800F0FE
:108970000C09D00601F003081ED42078C00700F0CF
:108980008880B9F1080F00F07D80B9F10C0F08BFA5
:10899000B8F1030F76D06068B0F5803F07D0B0F52E
:1089A000A02F40F05982306840F480203060306859
:1089B00040F4803030605AE2B9F1000F1CD0B9F1B8
:1089C0000C0F08BFB8F1010F16D0A169306800295B
:1089D00000F0A08140F001003060FFF78DFD0546FA
:1089E0003068800700F1A881FFF786FD401B022850
:1089F0004FF00300F4D960E33068800703D5A06925
:108A0000002800F0F382256A3068000700F14A81EF
:108A1000D6F89400000900F0F000854200F2488189
:108A20003068B9F1000F40F008003060306820F085
:108A3000F00040EA050030607068E16920F47F4092
:108A400040EA0120706040F0BE82B06DC00000F1CD
:108A50005B82B06D40F08050B065B06D00F080502A
:108A600002900298FFF72EFEB16D21F08051B165A2
:108A7000B0F5007F00F04E82802D40F28B82032003
:108A800093E200BF3068800303D56068002800F0DF
:108A9000AD82207880072DD5B9F1040F1CD0B9F133
:108AA0000C0F08BFB8F1020F16D0E168306800293A
:108AB00000F0EC8140F480703060FFF71DFD05464A
:108AC000306840050FD4FFF717FD401B02284FF018
:108AD0000300F5D9F1E200BF3068400503D5E06836
:108AE000002800F083827068216920F0FE4040EA8F
:108AF000016070602078000760D42078400779D446
:108B00002078800600F1B280A06A002800F0168369
:108B1000022840F02381F068E16A00F003028A42F3
:108B200040F03481226B6FF00F0300F0700103EB13
:108B30000212914240F02A81616B00F4FE42B2EBD6
:108B4000012F40F02381A16B00F07842B2EBC16F9E
:108B500040F01C81E26B0023CFF6E07303EA02527F
:108B600000F4C001A2F50012914240F00F81216C87
:108B70004FF07E4202EA016100F0C06001F17E41E7
:108B8000884240F003813068800100F1D78230686C
:108B900040F080703060F06840F08070F060FFF767
:108BA000ABFC04463068800100F1C882FFF7A4FCEA
:108BB000001B02284FF00300F4D97EE26169D6F869
:108BC0009400002900F0908040F00100C6F8940065
:108BD000FFF792FC054600BFD6F8940080078CD4BE
:108BE000FFF78AFC401B0228F6D9032003B0BDE83A
:108BF000F08300BFB06D5FEAC00808D4B06D40F0EC
:108C00008050B065B06D00F080500090009847F241
:108C10000007C4F200073868C00513D4386840F470
:108C200080703860FFF768FC054600BF3868C005F3
:108C300008D4FFF761FC401B02284FF00300F5D970
:108C40003BE200BFA068012808D0052840F0E28080
:108C5000D6F8900040F00400C6F89000D6F89000D6
:108C600040F00100C6F89000E2E000BF616AD6F86B
:108C70009800002900F0B88040F00100C6F8980084
:108C8000FFF73AFC054600BFD6F8980080073FF58D
:108C90003BAFFFF731FC401B02284FF00300F3D934
:108CA0000BE200BF306800F0F00085427FF6B8AEFE
:108CB000B06DC00000F18A80B06D40F08050B065AA
:108CC000B06D00F0805001900198FFF7FBFCB16D92
:108CD00021F08051B165B0F5007F00F07D80802DDE
:108CE00040F2E6800320EEE020F00100C6F8940098
:108CF000FFF702FC054600BFD6F8940080077FF519
:108D0000FCAEFFF7F9FB401B02284FF00300F3D93C
:108D1000D3E100BF20F001003060FFF7EDFB054616
:108D2000306880077FF529AEFFF7E6FB401B02287D
:108D30004FF00300F4D9C0E1306840F00800306023
:108D40003068D4E9071220F0F000104330607068FA
:108D500020F47F4040EA012070600EE6B9F10C0F6C
:108D600000F04481306820F080703060FFF7C4FB71
:108D7000044600BF3068800140F1F080FFF7BCFB83
:108D8000001B02284FF00300F4D996E1B9F10C0F53
:108D900000F02C813068400100F128813068C0006B
:108DA00000F12481306820F080703060FFF7A4FB70
:108DB00005463068800140F18381FFF79DFB401B31
:108DC00002284FF00300F4D977E100BFFFF77AFCE7
:108DD000B0F5007F7FF483AF812D73D30120A02DE8
:108DE00088BF02206FE000BF20F00100C6F89800A5
:108DF000FFF782FB054600BFD6F8980080077FF595
:108E000083AEFFF779FB401B02284FF00300F3D934
:108E100053E100BFD6F89010002821F00101C6F8F8
:108E20009010D6F8901021F00401C6F8901079D077
:108E3000FFF762FB054641F2883700BFD6F8900085
:108E4000800700F18180FFF757FB401BB842F5D93E
:108E5000032003B0BDE8F0833168002821F480319D
:108E60003160316821F48021316000F08380FFF7A8
:108E700043FB0546306880033FF50BAEFFF73CFB34
:108E8000401B64284FF00300F4D916E120F48070F1
:108E90003060FFF731FB0546306840057FF52AAEAC
:108EA000FFF72AFB401B02284FF00300F4D904E12E
:108EB000A5F17000B0FA80F04009802D08BF0220B3
:108EC00001E000BF002042F20001C4F202010A6882
:108ED00022F0070202440A60096801F0070181429A
:108EE00040F08480306840F0080030603068D4E999
:108EF000071220F0F00010433060706820F47F40CB
:108F000040EA012070605EE0FFF7DCFBB0F5007F17
:108F10007FF4B2AD812D47D30120A02D88BF022060
:108F200043E000BFFFF7E8FA054641F2883700BF8B
:108F3000D6F89000800707D5FFF7DEFA401BB8424D
:108F40004FF00300F4D9B8E0B8F1000F3FF5D8AD09
:108F5000B06D20F08050B065D2E500BFF0684FF6EC
:108F6000FC71CFF6EE610840F060002003B0BDE870
:108F7000F08300BFFFF7C0FA054600BF30688003EA
:108F80007FF587ADFFF7B8FA401B64284FF0030068
:108F9000F4D992E0A5F17000B0FA80F04009802D7C
:108FA00008BF022001E000BF002042F20001C4F22D
:108FB00002010A6822F0070202440A60096801F00F
:108FC0000701814212D1B068F16810F00C0005D0A1
:108FD0000C282BD101F00301012927D131680907A1
:108FE00008D4D6F89410090A06E000BF012003B0A7
:108FF000BDE8F0833168090949F6F01201F00F016C
:10900000C0F6000252F8211000280A4618BF0022BC
:109010000C2837D1F06800F00300022810D0032894
:1090200004BF41F20021C0F27A010DE004281FD0F4
:10903000082823D141F20022C0F27A0222E000BFC8
:1090400042F20041C0F2F401F068F268C0F302108D
:10905000C2F306225143F2680130B1FBF0F0C2F3D3
:109060004161022202EB4101B0FBF1F20AE000BFD4
:1090700042F20042C0F2F40204E000BF00220021EC
:109080000C28C7D0B06849F6E011C0F30310C0F651
:109090000001085C00F01F0022FA00F140F2040019
:1090A000C2F2000040F208020068C2F20002116041
:1090B000FFF746FA00283FF460AC03B0BDE8F08348
:1090C000F06848F28C01C0F29D1104F12C0700EA0F
:1090D000010C8ECF6FF00F00D4E90F5400EB02109B
:1090E0000022CFF6E07241EA0C0102EA0552084381
:1090F000A2F500124FF07E4540EA032005EA046520
:10910000104305F17E4540EAC7602843F0603068AF
:1091100040F080703060F06840F08070F060FFF7E1
:10912000EBF904463068800108D4FFF7E5F9001B2D
:1091300002284FF00300F5D9BFE700BF002003B0BD
:10914000BDE8F083411E0020B0EB116F1CBF012071
:1091500070474EF21002CEF2000251604EF62351DB
:10916000CEF20001F0230B70072190601160704770
:1091700090F83C20012A4FF0020258D010B580F838
:109180003D20026843F2004C5368D2F808E0C4F274
:10919000010C624505D042F60044C4F20104A2422B
:1091A00003D14C6823F4700323430C6823F070034D
:1091B000234340F6FF34C4F20004A242536011DDA1
:1091C00043F2FF33C4F201039A421BDC40F6004332
:1091D000C4F200039A421DD042F60043C4F20103D8
:1091E0000DE000BFB2F1804F14D040F20043C4F252
:1091F00000039A420ED040F60003C4F200039A42E4
:1092000008D00CE044F20003C4F201039A4201D0FA
:10921000624504D189682EF08003194391600121D1
:10922000002280F83D1080F83C20BDE81040104638
:1092300070470000002804BF0120704710B50446A5
:1092400090F83D0028B9002084F83C00204600F04A
:1092500023F8022084F83D002068211D00F0ACF9BD
:10926000012084F8480084F83E0084F83F0084F828
:10927000400084F8410084F8420084F8430084F8F8
:10928000440084F8450084F8460084F8470084F8D8
:109290003D00002010BD0000006840F20041C4F213
:1092A0000001884218BF704781B041F25800C4F2F3
:1092B0000200016841F002010160006800F0020054
:1092C0000090009801B0704790F83C20012A4FF0C0
:1092D000020200F0E280B0B580F83D2004688822E8
:1092E000A368CFF6FE721A40A2600B684F2B35DCE4
:1092F0001F2B51DD202B53D0302B51D0402B40F071
:10930000CF80D1F804C0D1F80CE0A4F18041236AE9
:10931000226AA1F59631A50545EA912122F00102C4
:109320000729226209D8012202FA01F111F0E50FA2
:109330001EBF216A21F004012162A16923F00A0203
:1093400021F0F00141EA0E1142EA0C02A161226211
:10935000A16841F0470121F0300194E06F2B27DD37
:10936000B3F5005F00F08080B3F5805F00F08C8083
:10937000702B40F09580D1E901C3C968A26843EA27
:109380000C0322F47F4243EA01211143A160A1684A
:1093900041F0770177E000BF13B1102B40F08080DF
:1093A000A16821F07001194341F007016BE000BF93
:1093B000502B2BD0602B73D1D1F804C0C968236A1D
:1093C000226A43F20045C4F20105AC4222F01002C9
:1093D000226205D042F60042C4F20102944203D157
:1093E000226A22F040022262A26922F4704242EA1A
:1093F000013123F0A00242EA0C12A1612262A168AD
:1094000041F0670121F010013DE000BFD1F804C038
:10941000D1F80CE0A4F18041236A226AA1F59631CB
:10942000A50545EA912122F001020729226209D807
:10943000012202FA01F111F0E50F1EBF216A21F0AD
:1094400004012162A16923F00A0221F0F00141EA3E
:109450000E1142EA0C02A1612262A16841F057019B
:1094600021F020010FE000BFD1E901C3C968A26863
:1094700043EA0C0322F47F4243EA01211143A16035
:10948000A16841F48041A1600022012180F83D10D3
:10949000002180F83C10BDE8B0401046704700BF86
:1094A0000122F2E7FEE7000070B586B0002541F228
:1094B0004C000595C4F20200016840F2004441F0FE
:1094C000800101600168C4F6000401F08001009190
:1094D00000990168002241F0020101600168012643
:1094E00001F0020100910099016841F00101016061
:1094F0000068012100F00100009000982046FEF76E
:10950000F5FF01A92046CDE90166CDE90355FEF737
:109510001BFF06B070BD000080B588B040F274003B
:1095200040F200420021C2F20000C4F200024FF4F7
:109530007A730791CDE905110291C0E90021C0E9D4
:109540000213016180218161FFF774FE002818BFBA
:10955000FEF7F4FE4FF48050049040F27400C2F223
:10956000000004A9FFF7B0FE002818BFFEF7E6FED2
:1095700000200190039040F27400C2F2000001A9A3
:10958000FFF7F6FD002818BFFEF7D8FE08B080BD33
:10959000FEE70000FEE70000704700007047000093
:1095A000FEF7B0BF4EF68850CEF20000016841F4DD
:1095B000700101607047000040F6FF32D0F800C033
:1095C000C4F2000290422DDCB0F1804F3CD040F25A
:1095D0000042C4F20002904236D040F60002C4F2CB
:1095E0000002904230D042F6FF32C4F201029042B3
:1095F00035DD43F6FF72C4F20102904240DD44F2D1
:109600000002C4F20102904254D044F60002C4F2B7
:10961000010290424ED044F20042C4F20102904254
:1096200048D04CE040F60042C4F2000290420BD019
:1096300043F20042C4F20102904205D042F60042D9
:10964000C4F201029042CED14A682CF0700342EA83
:10965000030C42F6FF32C4F201029042C9DC40F230
:10966000FF72C4F20002904218DCB0F1804F21D0AA
:1096700040F20042C4F2000290421BD01FE000BF43
:1096800042F60042C4F20102904213D043F200427B
:10969000C4F2010290420DD011E000BF40F600027A
:1096A000C4F20002904205D040F60042C4F200022B
:1096B000904204D1CA682CF4407342EA030C10B5FE
:1096C0008A680B68D1F814E0C262A0F18042A2F56A
:1096D0009632840544EA9222072A836207D801233E
:1096E00003FA02F212F0E50F1CBF09690163026878
:1096F0002CF0800142F0040241EA0E0102600122D6
:109700004261016010BD0000FEE70000002808BFB4
:10971000704770B54EF2180143F68002CEF2000198
:10972000C0F20102042800F0030C67D2BCF1000F64
:1097300061D00B68002003E0E51A2844904216D25D
:109740001C4600BF0B68A34208D10B68A34205D199
:109750000B68A34202D10B68A342F3D09C42EBD822
:1097600051F8046CE51A354428449042E8D3BCF122
:10977000010F40D00B68002004E000BFE51A284428
:10978000904216D21C4600BF0B68A34208D10B685A
:10979000A34205D10B68A34202D10B68A342F3D0C8
:1097A0009C42EBD851F8046CE51A354428449042A9
:1097B000E8D3BCF1020F1ED00B68002004E000BF0C
:1097C000E51A2844904216D21C4600BF0B68A342FB
:1097D00008D10B68A34205D10B68A34202D10B68E4
:1097E000A342F3D09C42EBD851F8046CE51A3544FF
:1097F00028449042E8D3BDE87040704720F0030E43
:10980000002304E0043398B270453FF48FAF0C6836
:10981000002009E0A542A5EB04059CBF51F8046CAB
:109820003544284490420FD2254600BF0C68AC4214
:10983000F0D10C68AC42EDD10C68AC42EAD10C68B6
:10984000AC42F3D0E6E700BF0C6800200AE000BF9E
:10985000A542A5EB04059CBF51F8046C354428448F
:1098600090420FD2254600BF0C68AC42F0D10C6884
:10987000AC42EDD10C68AC42EAD10C68AC42F3D0FA
:10988000E6E700BF0C6800200AE000BFA542A5EB98
:1098900004059CBF51F8046C3544284490420FD213
:1098A000254600BF0C68AC42F0D10C68AC42EDD14B
:1098B0000C68AC42EAD10C68AC42F3D0E6E700BFDA
:1098C0000C6800200BE000BFA542A5EB04059CBF7F
:1098D00051F8046C354428449042BFF493AF2546B8
:1098E0000C68AC42F0D10C68AC42EDD10C68AC42D3
:1098F000EAD10C68AC42F3D0E6E7000096B0FEF780
:109900000FFE0020CDE90D00CDE90B00CDE90900E7
:10991000CDE907004FF40070FEF78EFE20B1EFF3A3
:10992000108072B6FEE700BF01204FF4803103249F
:10993000059006910221CDE910401420CDE91201D5
:1099400005A80F91CDE91411FFF702F820B1EFF34C
:10995000108072B6FEE700BF0F20CDE900040020A2
:10996000CDE90200049068460421FEF7B3FE28B159
:10997000EFF3108072B600BFFEE700BF40F2144460
:1099800040F20045C4F60004C4F20005FFF78CFD68
:10999000FFF7C2FD286840F2700640F00100C2F2F5
:1099A00000062860686A3060206840F0010020608E
:1099B0000120FFF7ABFE206820F0010020600120AD
:1099C000FFF7A4FEEEE7F1EE100A4FF6FF71C0F2CA
:1099D000C03120EA010040F04070E1EE100A70470B
:1099E000000000000000000001020304060708094F
:1099F000A0860100400D0300801A060000350C000F
:109A000040420F0080841E0000093D0000127A00D1
:109A10000024F40000366E010048E801006CDC020E
:109A2000409A00080000002010000000108200088A
:109A3000509A000810000020B8060000308200088C
:109A4000010000001000000000093D0000000000BF
:04000005080081ADC1
:00000001FF
